:0300000002186083
:0C186000787FE4F6D8FD75815D0218A7C2
:061A7D002566002567004C
:021A8800C10C8F
:051A1A00121A557F0ABD
:101A1F00AD071FED600BE4FEEEC3947B50F20E801A
:011A2F00F7BF
:011A30002293
:0F1A5500C2A4C2A5D2A68F80C2A67F01021A1F0B
:0F1A6400D2A4C2A5D2A68F80C2A67F01021A1FEC
:101A0200AE07AC03ED7005EE24808003EE24C0FF28
:081A1200121A55AF04021A6418
:10198B008F3E8D3F8B408A418942AB40AA41A94291
:10199B00120CD9FB6016AD3FAF3E121A0274012533
:0D19AB0042F542E43541F541053E80DE2263
:1019DF007F0A121A1F7F38121A1A7F06121A1A7FDD
:1019EF000C121A1A7F01121A1A7F38121A557F0A0F
:0319FF00021A1FAA
:10195A0075B0F0E5B054F064F060217F0A121A1FE6
:10196A00E5B054F0FF64F06015200C12D20C75B08B
:10197A000FE5B075F00F84EF45F0FF22C20C7FFF30
:01198A00223A
:1018EC0012195AEF120DA1193077192D7B192A7D77
:1018FC0019277E193CB71939BB1936BD1933BE19D6
:10190C0048D71945DB1942DD193FDE1954E7195147
:10191C00EB194EED194BEE000019577F2F227F78F3
:10192C00227F2D227F2B227F3D227F33227F362266
:10193C007F39227F2E227F32227F35227F38227FF1
:0E194C0030227F31227F34227F37227FFF221C
:1015A900E4F538F537F536F535F53CF53BF53AF51B
:1015B900391219DF7F0A121A1F7F01121A557FC8C3
:1015C900121A1F7F01121A551218EC8F22E522F404
:1015D90060F6E52370057F01121A55E522642B6038
:1015E9001BE522642D6015E5226478600FE522640D
:1015F9002F6009E522643D600302172CE4F52320DE
:10160900001D7541FF75421A75437DF54475450006
:10161900754635FB7A0079251212D8D200801B75E0
:1016290041FF75421A75437D75440075450075463D
:10163900397B007A0079251212D8E4F53D74252505
:101649003DF8E4F6053DE53DB410F2AB227D01E439
:10165900FF121A02E522643D60068522240215D193
:10166900C200E52424D3602124FE604724B7602EFC
:10167900244D705AAF38AE37AD36AC35AB3CAA3BCA
:10168900A93AA839120807803DAF38AE37AD36AC54
:1016990035AB3CAA3BA93AA8391208038028AF38D0
:1016A900AE37AD36AC35AB3CAA3BA93AA8391208DE
:1016B900F88013AF38AE37AD36AC35AB3CAA3BA991
:1016C9003AA839120A018F388E378D368C35754113
:1016D900FF75421A754380853847853746853645F3
:1016E9008535447B007A007925120E477B007A0004
:1016F90079257D017F0112198BE4F524F53CF53B31
:10170900F53AF539F538F537F536F535F53DE53D71
:10171900C3941040030215D17425253DF8E4F6055C
:101729003D80EBE523C3941040030215D1E5236402
:10173900017029E52564307023E522B42E10752641
:101749002EFBE4FD7F01121A0205230215D1852221
:1017590025AB22E4FDFF121A020215D174252523B7
:10176900F8A622AB22E4FDAF23121A0205230215C3
:01177900D19E
:10080000020AD3E86480F8E933E83360110460F049
:10081000ED33EC337009E8FCE9FDEAFEEBFF22045E
:1008200060DED3EB9FEA9EE99DE8C2E78CF0C2F759
:1008300095F0400CE8CCF8E9CDF9EACEFAEBCFFB25
:10084000120A9E85D0F05804700320D5B3E80470D6
:10085000075002B2D5020ADD92D5EC0460F7E4CC71
:10086000C0E0C398F8603B94186008400DD0E0FBEE
:10087000020AB5E4FBFAC9FC8028E830E406E4C9C2
:10088000FBE4CAFCE830E305E4C9CACBFCE8540742
:100890006010F8C3E913F9EA13FAEB13FBEC13FC4D
:1008A000D8F130F52FC3E49CFCEF9BFFEE9AFEEDF0
:1008B00099FDD0E0FBEF4E4D4C701222DB03020A93
:1008C000DAEC2CFCEF33FFEE33FEED33FDED30E7D9
:1008D000EB020AB5EF2BFFEE3AFEED39FDD0E0FB5F
:1008E00050130BBB0003020ADDED13FDEE13FEEF08
:0808F00013FFEC13FC020AB532
:1008F800EC4D6011E8497017ED33EC3304600DE4FA
:10090800FCFFFEFD22E933E8330470F8020AD31233
:100918000A9E58046009E4CC248150062850090234
:100928000ADD284003020ADAC0E0EB4A7044B980C5
:1009380006D0E0FB020AC9EF4E701CBD8008EBFF31
:10094800EAFEE9FD80EBE98DF0A4FEE5F00209E19D
:10095800E9CDF9EAFEEBFFEF89F0A4FCE5F0CE89DA
:10096800F0A42EFFE435F0CD89F0A42DFEE435F097
:100978008067EF4E7005BD80D780C3EF8BF0A4ACC5
:10098800F0EE8BF0A42CFCE435F0F8EF8AF0A42C00
:10099800E5F038FCE433CB8DF0A42CFCE5F03BF813
:1009A800EE8AF0A42CFCE5F038F8E433CF89F0A403
:1009B8002CFCE5F038CF3400CE89F0A42FFFE5F009
:1009C8003EFEE433C98DF0A42EFEE5F039CD8AF061
:1009D800A42FFFE5F03EFEE43DFD33D0E0FB5007D9
:1009E8000BBB000F020ADDEC2CFCEF33FFEE33FEED
:0609F800ED33FD020AB51B
:1009FE00020ADDEC5D046005E859047003020AD3B7
:100A0E00120A9E580460F6EC4860F2EC7004FDFE8B
:100A1E00FF22C860DB2481C85009C39860025006CB
:100A2E00020ADA9850CAF582E9294B4A7005AB8260
:100A3E00020AC975F0007C1A7880C3EF9BEE9AED1E
:100A4E0099400DC3EF9BFFEE9AFEED99FDE842F043
:100A5E00DC23ACF0D0E0FFD0E0FED0E0FDAB822096
:100A6E00E7101BEB60BAEC2CFCEF33FFEE33FEED20
:100A7E0033FD020AB5E803F830E705C0F075F00063
:100A8E00EF2FFFEE33FEED33FD40B830E7C280AA04
:100DEB00E5552441F8E6055522783E300802784156
:100DFB00E475F001120D81020CD92001EB7F2ED28C
:100E0B00018018EF540F2490D43440D4FF30050BDD
:100E1B00EF24BFB41A0050032461FFE5566002159E
:100E2B00560559E5597002055830080D783EE475A2
:100E3B00F001120D81EF020D1F0219B87403D208D5
:100E4B008003E4C208F5558B3E8A3F8940E4F55692
:100E5B00F558F559E55660077F20120E2680F5757B
:100E6B0057FFC202C201C203C204C206C207C209B3
:100E7B00120DF4FF700D3008057F00120E37AF59BD
:100E8B00AE5822B4255FC2D5C205120DF4FF24D093
:100E9B00B40A00501A75F00A785630D50508B6FF1B
:100EAB000106C6A426F620D5047002D20480D924EC
:100EBB00CFB41A00EF5004C2E5D205021124D202BE
:100ECB0080C6D20180C0D20380BCD2D580BAD206F4
:100EDB0080B47F20120E262003077401B556004004
:100EEB00F1120DEBFF120E26020E5FD209D2078014
:100EFB0095120DEBFB120DEBFA120DEBF94A4B7041
:100F0B0006791B7A127BFF20032EE556602A7E00A2
:100F1B008E82758300120CF260060EEE655770F030
:100F2B00C2D5EBC0E0EAC0E0E9C0E0EE121184D01C
:100F3B00E0F9D0E0FAD0E0FB120CD9FF60AAEBC0CD
:100F4B00E0EAC0E0E9C0E0120E26D0E02401F9D0BF
:100F5B00E03400FAD0E0FBE5570460DCD557D980CC
:100F6B0087D20380A212116760F7E5577001041254
:100F7B000AE8A957600DE557600914F55712120ED0
:100F8B00EF60F3EA30E702F404C3995077EAF425F3
:100F9B00570430E701E404F557800D12116760C167
:100FAB00EA05572557120AE8EA7854F630E701E4C8
:100FBB00255704D5570420060114121184E4C0E010
:100FCB0012120E7854E6601320E70714F6120E0E79
:100FDB00802204F6D0E014C0E07F00120E0EE5571D
:100FEB006007120E051557800B300603120E05D045
:100FFB00E0020E5FD0E00480C512116760A0E557D8
:10100B0004120AE87854EAF6E55720060260010458
:05101B00240412118401
:1010200074FF04C0E012120E120E0EE557200602E5
:101030006003120E05D0E0B557E87F45120E187810
:1010400054E67F2B30E7047F2DF404C0E0120E2617
:10105000D0E075F00A84C0F0120E0FD0E0120E0F2F
:10106000020E5F791080027908C207C2098008D297
:10107000D5790A8004790AC2D5E557047002F5577C
:10108000E4FAFDFEFF120DEBFC7B08200213120DAB
:10109000EBFD7B1030010A120DEBFE120DEBFF7B16
:1010A00020EC3382D592D55013C3E43001069FFF64
:1010B000E49EFEE42002039DFDE49CFCE4CBF8C228
:1010C00002EC700CCFCECDCCE824F8F870F380178A
:1010D000C3EF33FFEE33FEED33FDEC33FCEB33FBBC
:1010E000994002FB0FD8E9EB300205F8D0E0C44884
:1010F000B202C0E00AEC4D4E4F78207B0070C2EA8D
:10110000B5570040BCC0E0121186D0F0D0E02002FC
:1011100004C4C0E0C4B202C0F0120E0FD0F0D5F08B
:10112000EB020E5F120DA10EFC531063580ECD4C56
:101130000EC94210674F106F44106F490EE2431002
:1011400075550FA6461004450F7047123B500ED13F
:101150002D0ED52E0EF82B0ED9230EF62012242A92
:101160000E914800000EF0E557B4FF0375570612C4
:101170000DEBFC120DEBFD120DEBFE120DEBFF78EB
:101180004D020B17790AA2D5200414300609B910B4
:10119000020404B9080104A2D5200702500104206A
:1011A00003689203B556005034C0E07F2030041924
:1011B0007F30A20372077206500F1211DDC203C204
:1011C00007C206C2097F30800F300603E9C0E01273
:1011D0000E26300603D0E0F9D0E0B556CC30061725
:1011E0007F30B9100C120E267F583005077F7880AB
:1011F00003B90803120E263003057F2D020E267F49
:10120000202009F87F2B2007F322920380CF7F0054
:10121000B407005005244DF8E6FF22286E756C6C6B
:101220002900D202120DEB3002F8C202785630D5F6
:101230000108F6020E912D50434958120DEB24037C
:10124000B405004001E490123693120E17743A125E
:0A1250000E17D20475560402106355
:10125A00E55330040104F823282441F822783E306B
:10126A0004027841E475F001120D81020CD960EC98
:10127A00C5577002155614C557200404FF021A8375
:10128A00783E74FFF5F0020D91FF021A31E55460C1
:10129A0006D554037F002220040F121A44EF600877
:1012AA000557E5577002055622783E120D78120C42
:1012BA00D9FF60E9783EE475F001120D8180DE12F3
:1012CA0012A1EFC0E0121293D0E040F380A0D20442
:1012DA008002C2048B3E8A3F8940E4F555F553F5F6
:1012EA0056F557755400C203C201C202C205121252
:1012FA0067FF7005AF557E0022B42530121267FFD2
:10130A0024D0B40A00500C75F00AC554A42554F52B
:10131A005480E924CFB41A00EF5002C2E5021575D1
:10132A00D20280D8D20180D4D20580D0EF12129393
:10133A0050081212C9EF600E80A9EFC0E01212A184
:10134A00D0E06F609EEF607412127880A71212A12B
:10135A00EF6069E5547007055480031212A1EF602B
:10136A001420050E12125AE475F001120D81EF12C3
:10137A000D1FD554E62005040553055580BA1212EF
:10138A0097EFC0E0121293D0E05004121278E4FFF3
:10139A0020050E12125AE475F001120D81EF120D9A
:1013AA001FEF70DA20050405530555808BE554605C
:1013BA000205541212C9121297EF70C6300404E4DF
:1013CA00121278E55560030212FE7EFF7FFF22E5C6
:1013DA0054600205541212C9D207D206121297EFAC
:1013EA0030070260D7C0E0121278D0E0AC58AD598D
:1013FA00AE5AAF5B12178D8C588D598E5A8F5B502F
:10140A00071212A1C20680D4200510200602055533
:08141A0012125A120D7805535D
:10142200120D5E0212EDD0E0809A7900800A7910E6
:10143200800679088002790AD206E55460020554D2
:10144200E9C0E01212C9EF60DD1212A1BF2D04D271
:10145200038003BF2B091212C9EF60CA121297D080
:10146200E0B40A028033B40802802EBF3027700233
:101472007408C206C0E0121297D0E0BF780280035F
:10148200BF58160554D554028007D55404D206809D
:101492000B741080197002740ABF000AEFF8E4FCA2
:1014A200FDFEFF021528C0E0EF121278D0E0F9E449
:1014B200FCFDFEFFE9C0E0ECC0E0EDC0E0EEC0E004
:1014C200EFC0E0121297EFF8D0E0FFD0E0FED0E0DC
:1014D200FDD0E0FCD0F0E8604DB461004007B47B81
:1014E200005002C2E524D0503DFA24F6500724F9F8
:1014F2005034240AFAEAB5F000502BCFA9F0A42FF9
:10150200FF92D5E9C5F0CEA4A2D53EFE92D5E9C59B
:10151200F0CDA4A2D53DFD92D5E9C5F0CCA4A2D5CB
:101522003CFCC206808EE8C0E020052A20060805A1
:1015320055300303120D5012125A120D7805532022
:10154200010B20020DEE8FF0120D318009120D5E9B
:101552008004EF120D1FD0E01212780212ED200566
:101562001012125A120D780553E5568557F0120DD6
:101572003180E8120DA113B753143058132E4C13B7
:101582002A4213064814344F143844135743142C78
:101592004914385513D94613D94513D94713322A5A
:0715A20015604E0000133636
:100A9E00E9D2E7C933E833F892D5EDD2E7CD33EC9E
:070AAE0033FC5002B2D52217
:100AB500EC30E7100FBF000C0EBE00080DBD0004A2
:100AC5000BEB6014A2D5EB13FCED92E7FD2274FF4E
:100AD500FCFDFEFF22E480F8A2D574FF13FC7D80A7
:030AE500E480EFBB
:100AE800F920E72824F950037907E4F42402FB18D5
:100AF800DBFDE624FB5014E9600DE4F618E604F685
:0F0B0800B40A08E4F6D9F57401F60A22C2D52220
:100B1700ED33EC3392D5FA602AB4FF33EDC2E77BAD
:100B2700FF60067A0B793CE4227A0B794520D504DD
:100B37007A0B7940224E614E002B494E46002D49D3
:100B47004E4600E47A08F608DAFC7B00740722E8D0
:100B5700C0E0ECC0E0EDC0E0EEC0E0EFC0E0EA7559
:100B6700F010A4CAABF075F04DA42BFBE435F0FCF4
:100B7700EA2410FAEB34C5FBEC34D9FCEDC2E7FFED
:100B870075F056A4F42411C5F0F434C58FF0A42AE7
:100B9700E5F03BE43CF620E714120C99D0E0FFD0D7
:100BA700E0FED0E0FDD0E0FC120A018014F404124C
:100BB7000C99D0E0FFD0E0FED0E0FDD0E0FC1208B9
:100BC700F8D0E0F8E6FAEDD2E7CD33EC332482FB38
:100BD700E4C3CF33CFCE33CECD33CD33DBF37B0777
:100BE70075F00A846004F6081B0AE5F0F6088FF032
:100BF700740AA4FFACF08EF0740AA42CFEACF0507B
:100C0700010C8DF0740AA42CFDE435F0F608DBDE48
:030C17007407223D
:10177A00C208C209C20AC20BF9E4F55CF55DFCFDB8
:10178A00FEFFE91007EA200A0CB42D04D20AD3227C
:10179A00B42B02D32224D0504794095041240A3052
:1017AA000B15F8855DF0740AA42872E74051C5F05C
:1017BA00704D85F05DD322D209C0E0E4FBFA7920AE
:1017CA0078411208F8ECF8EDF9EEFAEFFBD0E0FCFC
:1017DA00E4120C351208073008B4155CD322240A27
:1017EA00200B20B4FE0720081AD208D32224EB606B
:1017FA000424E0700EA20A9208D20BC20AD322C3B2
:10180A00020AD3E4300B0BE55D300A02F404A208A5
:10181A00920A3009EA255C20D2E5A2E7920B50022F
:10182A00F404B4260050D8CCC0E0EDC0E0EEC0E02D
:10183A00EFC0E0EC120C99D0E0FFD0E0FED0E0FD62
:10184A00D0E0FC200B051208F88003120A01300AC6
:06185A0003120C1AC32268
:100C1A00ED33EC33600A047003BD8004ECB2E7FCE8
:010C2A0022A7
:100C2B0075F020800E75F010800575F0087D007E44
:100C3B00007F003392D530D503120D50EC334010AA
:100C4B00EF33FFEE33FEED33FDEC33FCD5F0ED224D
:0E0C5B00E5F0247EA2D513CC92E7CDCEFF2289
:100C69003F8000004120000042C80000447A000093
:100C7900461C400047C35000497424004B18968015
:100C89004CBEBC205A0E1BCA6753C21C749DC5AE0C
:100C9900FB60065407601C2323120CC7EB54386011
:100CA90009120CB3120CC21208F8ECF8EDF9EEFABD
:100CB900EFCB22EB120CC280F1543803241C900CA8
:100CC90069FE93FC0EEE93FD0EEE930ECE93FF227A
:10186C000215A9E493A3F8E493A34003F68001F2D4
:10187C0008DFF48029E493A3F85407240CC8C3337D
:10188C00C4540F4420C8834004F456800146F6DF4C
:10189C00E4800B0102040810204080901A88E47E3A
:1018AC00019360BCA3FF543F30E509541FFEE49341
:1018BC00A360010ECF54C025E060A840B8E493A308
:1018CC00FAE493A3F8E493A3C8C582C8CAC583CA33
:1018DC00F0A3C8C582C8CAC583CADFE9DEE780BEEB
:011A8A00005B
:100CD900BB010689828A83E0225002E722BBFE0219
:090CE900E32289828A83E493224C
:100CF200BB010CE58229F582E5833AF583E02250B7
:100D020006E92582F8E622BBFE06E92582F8E22200
:0D0D1200E58229F582E5833AF583E493221A
:100D1F00BB010689828A83F0225002F722BBFE01B3
:020D2F00F322AD
:100D3100BB010A89828A83F0E5F0A3F0225006F70D
:0F0D410009A7F01922BBFE06F3E5F009F319220A
:0E0D5000C3E49FFFE49EFEE49DFDE49CFC22B4
:100D5E00BB010789828A83020DD35005E9F8020D83
:0A0D6E00C7BBFE05E9F8020DDF2205
:090D7800E6FB08E6FA08E6F922A0
:100D8100FAE6FB0808E6F925F0F618E6CA3AF62273
:100D9100FAE6FB0808E625F0F9F618E63AFAF62233
:100DA100D083D082F8E4937012740193700DA3A3E1
:100DB10093F8740193F5828883E4737402936860F5
:060DC100EFA3A3A380DFF5
:1019B800EFB40A07740D1219C3740A309811A89964
:1019C800B8130CC2983098FDA899C298B811F6308F
:0719D80099FDC299F5992267
:101A4400100E0B121A73BF0D027F0A0219B8AF08E9
:011A5400226F
:051A83008F08D20E22C5
:101A3100EFC394094005EF940E4003BF2003D38008
:031A410001C322BC
:0C0DC700ECF608EDF608EEF608EFF62258
:0C0DD300ECF0A3EDF0A3EEF0A3EFF02293
:0C0DDF00ECF208EDF208EEF208EFF22250
:0A1A73003098FDAF99C2987E002262
:00000001FF
